{"abi":[{"type":"function","name":"revokeSessionKey","inputs":[{"name":"key","type":"address","internalType":"address"}],"outputs":[],"stateMutability":"nonpayable"},{"type":"function","name":"setSessionKey","inputs":[{"name":"key","type":"address","internalType":"address"},{"name":"validAfter","type":"uint48","internalType":"uint48"},{"name":"validUntil","type":"uint48","internalType":"uint48"},{"name":"target","type":"address","internalType":"address"},{"name":"selector","type":"bytes4","internalType":"bytes4"},{"name":"maxValue","type":"uint256","internalType":"uint256"},{"name":"enabled","type":"bool","internalType":"bool"}],"outputs":[],"stateMutability":"nonpayable"},{"type":"function","name":"validate","inputs":[{"name":"userOpHash","type":"bytes32","internalType":"bytes32"},{"name":"signature","type":"bytes","internalType":"bytes"},{"name":"callData","type":"bytes","internalType":"bytes"}],"outputs":[{"name":"","type":"bool","internalType":"bool"}],"stateMutability":"view"},{"type":"error","name":"ECDSAInvalidSignature","inputs":[]},{"type":"error","name":"ECDSAInvalidSignatureLength","inputs":[{"name":"length","type":"uint256","internalType":"uint256"}]},{"type":"error","name":"ECDSAInvalidSignatureS","inputs":[{"name":"s","type":"bytes32","internalType":"bytes32"}]}],"bytecode":{"object":"0x60808060405234601557610735908161001a8239f35b5f80fdfe60806040526004361015610011575f80fd5b5f3560e01c806384f4fc6a146101db578063c04b6f23146100ab5763fb59f1651461003a575f80fd5b346100a75760603660031901126100a75760243567ffffffffffffffff81116100a75761006b903690600401610237565b6044359067ffffffffffffffff82116100a75760209261009261009d933690600401610237565b929091600435610300565b6040519015158152f35b5f80fd5b346100a75760e03660031901126100a7576100c4610221565b60243565ffffffffffff81168091036100a7576044359065ffffffffffff82168092036100a7576064356001600160a01b03811693908490036100a75760843563ffffffff60e01b81168091036100a75760c435948515158096036100a75760039461012e610265565b948552602085019081526040850191825260608501928352608085019360a435855260a08601978852335f525f60205260405f209060018060a01b03165f526020526bffffffffffff00000000000065ffffffffffff60405f20965116915160301b16916bffffffffffffffffffffffff19905160601b16911717835560018301905160e01c63ffffffff19825416179055516002820155019051151560ff801983541691161790555f80f35b346100a75760203660031901126100a7576101f4610221565b335f908152602081815260408083206001600160a01b03909416835292905220600301805460ff19169055005b600435906001600160a01b03821682036100a757565b9181601f840112156100a75782359167ffffffffffffffff83116100a757602083818601950101116100a757565b6040519060c0820182811067ffffffffffffffff82111761028557604052565b634e487b7160e01b5f52604160045260245ffd5b6040519190601f01601f1916820167ffffffffffffffff81118382101761028557604052565b92919267ffffffffffffffff8211610285576102e4601f8301601f1916602001610299565b93828552828201116100a757815f926020928387013784010152565b9361030b919361041c565b959295949194939093156104125761035661035c92610365947f19457468657265756d205369676e6564204d6573736167653a0a3332000000005f52601c52603c5f209236916102bf565b906105aa565b909291926105e4565b335f525f60205260405f209060018060a01b03165f5260205260405f209260ff600361038f610265565b95805465ffffffffffff8116885265ffffffffffff8160301c16602089015260601c604088015263ffffffff60e01b600182015460e01b1660608801526002810154608088015201541615801560a086015261040a576103ee846104c9565b1561040a576103fc93610508565b1561040657600190565b5f90565b505050505f90565b5050505050505f90565b9190600481106104b0576324f16c0560e11b83356001600160e01b031916016104b057806004116100a757820190606083830360031901126100a75760048301356001600160a01b03811692908390036100a757604484013567ffffffffffffffff81116100a7578401816023820112156100a757602491818360046104a594013591016102bf565b929301359190600190565b5090506104bd6020610299565b5f81525f915f91905f90565b65ffffffffffff8151164210610503576020015165ffffffffffff1680151590816104f9575b5061040657600190565b905042115f6104ef565b505f90565b919060018060a01b036040840151168015159182610596575b505061058f5760608201516001600160e01b031916801515918261056f575b50506105695760800151801515918261055f575b505061040657600190565b1190505f80610554565b50505f90565b9091506001600160e01b03199061058590610658565b1614155f80610540565b5050505f90565b6001600160a01b0316141590505f80610521565b81519190604183036105da576105d39250602082015190606060408401519301515f1a90610672565b9192909190565b50505f9160029190565b600481101561064457806105f6575050565b6001810361060d5763f645eedf60e01b5f5260045ffd5b60028103610628575063fce698f760e01b5f5260045260245ffd5b6003146106325750565b6335e2f38360e21b5f5260045260245ffd5b634e487b7160e01b5f52602160045260245ffd5b600481511061050357602001516001600160e01b03191690565b91907f7fffffffffffffffffffffffffffffff5d576e7357a4501ddfe92f46681b20a084116106f4579160209360809260ff5f9560405194855216868401526040830152606082015282805260015afa156106e9575f516001600160a01b038116156106df57905f905f90565b505f906001905f90565b6040513d5f823e3d90fd5b5050505f916003919056fea26469706673582212208a9440cc4b79a737664d08315e925c79a1dc00a5f177f73b0747d4e3fbec915164736f6c63430008210033","linkReferences":{}},"methodIdentifiers":{"revokeSessionKey(address)":"84f4fc6a","setSessionKey(address,uint48,uint48,address,bytes4,uint256,bool)":"c04b6f23","validate(bytes32,bytes,bytes)":"fb59f165"},"id":2}