{"abi":[{"type":"function","name":"createSessionKey","inputs":[{"name":"sessionKey","type":"address","internalType":"address"},{"name":"cfg","type":"tuple","internalType":"struct SessionKeyManager.SessionConfig","components":[{"name":"validAfter","type":"uint64","internalType":"uint64"},{"name":"validUntil","type":"uint64","internalType":"uint64"},{"name":"maxValuePerTx","type":"uint256","internalType":"uint256"},{"name":"targetAllowlistEnabled","type":"bool","internalType":"bool"},{"name":"selectorAllowlistEnabled","type":"bool","internalType":"bool"}]},{"name":"targets","type":"address[]","internalType":"address[]"},{"name":"selectors","type":"bytes4[][]","internalType":"bytes4[][]"}],"outputs":[],"stateMutability":"nonpayable"},{"type":"function","name":"isSessionKeyValid","inputs":[{"name":"account","type":"address","internalType":"address"},{"name":"userOpHash","type":"bytes32","internalType":"bytes32"},{"name":"signature","type":"bytes","internalType":"bytes"},{"name":"calls","type":"tuple[]","internalType":"struct Call[]","components":[{"name":"target","type":"address","internalType":"address"},{"name":"value","type":"uint256","internalType":"uint256"},{"name":"data","type":"bytes","internalType":"bytes"}]},{"name":"_totalValue","type":"uint256","internalType":"uint256"}],"outputs":[{"name":"ok","type":"bool","internalType":"bool"},{"name":"reason","type":"bytes32","internalType":"bytes32"}],"stateMutability":"view"},{"type":"function","name":"revokeSessionKey","inputs":[{"name":"sessionKey","type":"address","internalType":"address"}],"outputs":[],"stateMutability":"nonpayable"},{"type":"event","name":"SessionKeyCreated","inputs":[{"name":"account","type":"address","indexed":true,"internalType":"address"},{"name":"sessionKey","type":"address","indexed":true,"internalType":"address"},{"name":"validUntil","type":"uint64","indexed":false,"internalType":"uint64"},{"name":"scopeHash","type":"bytes32","indexed":false,"internalType":"bytes32"}],"anonymous":false},{"type":"event","name":"SessionKeyRevoked","inputs":[{"name":"account","type":"address","indexed":true,"internalType":"address"},{"name":"sessionKey","type":"address","indexed":true,"internalType":"address"}],"anonymous":false},{"type":"error","name":"ECDSAInvalidSignature","inputs":[]},{"type":"error","name":"ECDSAInvalidSignatureLength","inputs":[{"name":"length","type":"uint256","internalType":"uint256"}]},{"type":"error","name":"ECDSAInvalidSignatureS","inputs":[{"name":"s","type":"bytes32","internalType":"bytes32"}]}],"bytecode":{"object":"0x60808060405234601557610c3f908161001a8239f35b5f80fdfe60806040526004361015610011575f80fd5b5f3560e01c8063562898711461051e57806384f4fc6a146104b05763d1366cbc1461003a575f80fd5b3461037e5761010036600319011261037e576100546105b9565b60a036602319011261037e5760c4356001600160401b03811161037e5761007f9036906004016105cf565b60e4929192356001600160401b03811161037e576100a19036906004016105cf565b939084830361037e576001600160401b03602435166024350361037e576100c661082e565b60843515156084350361037e5760a435151560a4350361037e57604051906100ed826105ff565b6001600160401b036024351682526001600160401b036020830191168152604082016064358152600260608401936001855260808101926084351515845260a082019460a43515158652335f525f60205260405f2060018060a01b038c165f526020526001600160401b0360405f209351166fffffffffffffffff00000000000000008454925160401b16916fffffffffffffffffffffffffffffffff191617178255516001820155019251151560ff801985541691161783555115159061ff0062ff000084549251151560101b169260081b169062ffff001916171790555f5b8381106103b257506101de61082e565b9460405192602084019461010085016001600160401b03602435168752604435906001600160401b03821680920361037e5791869493928192604087015260643560608701526084351515608087015260a435151560a087015260e060c087015252610120840191905f905b80821061038257505050601f198382030160e0840152818152602081019160208160051b83010192855f93601e1982360301905b8486106102e65750505050505061029e925003601f19810183528261062e565b5190206001600160401b0360405193168352602083015260018060a01b0316907f2f9a94bfec7e746951fba6fbf5daa125249dd6271fd0343f5120f0c0739ca45d60403392a3005b9193959092949650601f1982820301855287358381121561037e578401602081359101916001600160401b03821161037e578160051b3603831361037e5781815260200191905f905b8082106103535750505060208060019299019501960193969492909188969261027e565b90919283359063ffffffff60e01b821680920361037e5760208160019382935201940192019061032f565b5f80fd5b919394509183359060018060a01b03821680920361037e576020816001938293520194019201869493929161024a565b9294919094335f52600160205260405f2060018060a01b0386165f5260205260405f206103e86103e3868486610844565b610868565b6001600160a01b03165f90815260209190915260408120805460ff191660011790555b61041685858961087c565b90508110156104a157335f52600260205260405f2060018060a01b0387165f5260205260405f2061044b6103e3878587610844565b60018060a01b03165f5260205260405f20906104728161046c88888c61087c565b90610844565b359163ffffffff60e01b831680930361037e576001925f5260205260405f208260ff198254161790550161040b565b509260019095919295016101ce565b3461037e57602036600319011261037e576104c96105b9565b335f818152602081815260408083206001600160a01b0395909516808452949091528120600201805460ff191690557f744157ccffbd293a2e8644928cd7d23d650f869b88f72d7bfea8041b76ca6bec9080a3005b3461037e5760a036600319011261037e576105376105b9565b604435906001600160401b03821161037e573660238301121561037e578160040135916001600160401b03831161037e57366024848301011161037e57606435906001600160401b03821161037e576040936105ab9361059d60249436906004016105cf565b94909301906024359061064f565b825191151582526020820152f35b600435906001600160a01b038216820361037e57565b9181601f8401121561037e578235916001600160401b03831161037e576020808501948460051b01011161037e57565b60c081019081106001600160401b0382111761061a57604052565b634e487b7160e01b5f52604160045260245ffd5b90601f801991011681019081106001600160401b0382111761061a57604052565b94939291907f19457468657265756d205369676e6564204d6573736167653a0a3332000000005f52601c52603c5f206001600160401b03831161061a57604051906106a4601f8501601f19166020018361062e565b838252368484011161037e575f6020856106d2966106c9968387013784010152610aaa565b90929192610ae4565b6001600160a01b038481165f90815260208181526040808320938516835292905281902090519490600290610706876105ff565b6001600160401b038154818116895260401c16602088015260018101546040880152015460ff808216159182156060890152818160081c161515608089015260101c16151560a08701526108035761075d856108c0565b156107d857828561076f938693610927565b156107af5761077d92610a5f565b15610789576001905f90565b5f907f0a9e0b8d34c955bba77864b696548d208215a8d090bdfe7a0487bda14b95121190565b5050505f907feeb1c17049a4552b40254bf44c0693cc79e244c70bb3541c16c18601a0adac7290565b50505050505f907fce36602af3cb27eb14c0bffbc23e13a299699eab8c73d41720685fc739e13a0b90565b50505050505f907f2373ebd76536fc57591e36f6ca7224b96e1071d31788487b7be301a03e0d372c90565b6044356001600160401b038116810361037e5790565b91908110156108545760051b0190565b634e487b7160e01b5f52603260045260245ffd5b356001600160a01b038116810361037e5790565b91908110156108545760051b81013590601e198136030182121561037e5701908135916001600160401b03831161037e576020018260051b3603811361037e579190565b6001600160401b03815116421061090057602001516001600160401b031680151590816108f6575b506108f257600190565b5f90565b905042115f6108e8565b505f90565b91908110156108545760051b81013590605e198136030182121561037e570190565b9291935f5b81811061093e57505050505050600190565b6080860151151580610a11575b610a075760a0860151610961575b60010161092c565b61096c818386610905565b604081013590601e198136030182121561037e57018035906001600160401b03821161037e5760200190803603821361037e576109a891610b58565b6001600160a01b038681165f9081526002602090815260408083209388168352929052206109da6103e3848689610905565b60018060a01b03165f5260205260405f209063ffffffff60e01b165f5260205260ff60405f205416610959575b5050505050505f90565b506001600160a01b038581165f908152600160209081526040808320938716835292905220610a446103e3838588610905565b60018060a01b03165f5260205260ff60405f2054161561094b565b60400190815115610aa2575f5b838110610a7c5750505050600190565b6020610a89828685610905565b0135835110610a9a57600101610a6c565b505050505f90565b505050600190565b8151919060418303610ada57610ad39250602082015190606060408401519301515f1a90610b7c565b9192909190565b50505f9160029190565b6004811015610b445780610af6575050565b60018103610b0d5763f645eedf60e01b5f5260045ffd5b60028103610b28575063fce698f760e01b5f5260045260245ffd5b600314610b325750565b6335e2f38360e21b5f5260045260245ffd5b634e487b7160e01b5f52602160045260245ffd5b9060048110610b765760041161037e57356001600160e01b03191690565b50505f90565b91907f7fffffffffffffffffffffffffffffff5d576e7357a4501ddfe92f46681b20a08411610bfe579160209360809260ff5f9560405194855216868401526040830152606082015282805260015afa15610bf3575f516001600160a01b03811615610be957905f905f90565b505f906001905f90565b6040513d5f823e3d90fd5b5050505f916003919056fea2646970667358221220f561815a4ceea9aa47c4f1c8fad41ae860a7eebbdcd53cb7d589934f33471cf064736f6c63430008210033","linkReferences":{}},"methodIdentifiers":{"createSessionKey(address,(uint64,uint64,uint256,bool,bool),address[],bytes4[][])":"d1366cbc","isSessionKeyValid(address,bytes32,bytes,(address,uint256,bytes)[],uint256)":"56289871","revokeSessionKey(address)":"84f4fc6a"},"id":3}