{"abi":[{"type":"constructor","inputs":[{"name":"_owner","type":"address","internalType":"address"},{"name":"_entryPoint","type":"address","internalType":"contract IEntryPoint"},{"name":"_policyManager","type":"address","internalType":"contract PolicyManager"},{"name":"_sessionKeyManager","type":"address","internalType":"contract SessionKeyManager"}],"stateMutability":"nonpayable"},{"type":"receive","stateMutability":"payable"},{"type":"function","name":"entryPoint","inputs":[],"outputs":[{"name":"","type":"address","internalType":"contract IEntryPoint"}],"stateMutability":"view"},{"type":"function","name":"execute","inputs":[{"name":"target","type":"address","internalType":"address"},{"name":"value","type":"uint256","internalType":"uint256"},{"name":"data","type":"bytes","internalType":"bytes"}],"outputs":[],"stateMutability":"nonpayable"},{"type":"function","name":"executeBatch","inputs":[{"name":"targets","type":"address[]","internalType":"address[]"},{"name":"values","type":"uint256[]","internalType":"uint256[]"},{"name":"datas","type":"bytes[]","internalType":"bytes[]"}],"outputs":[],"stateMutability":"nonpayable"},{"type":"function","name":"owner","inputs":[],"outputs":[{"name":"","type":"address","internalType":"address"}],"stateMutability":"view"},{"type":"function","name":"policyManager","inputs":[],"outputs":[{"name":"","type":"address","internalType":"contract PolicyManager"}],"stateMutability":"view"},{"type":"function","name":"sessionKeyManager","inputs":[],"outputs":[{"name":"","type":"address","internalType":"contract SessionKeyManager"}],"stateMutability":"view"},{"type":"function","name":"setPolicyManager","inputs":[{"name":"newManager","type":"address","internalType":"address"}],"outputs":[],"stateMutability":"nonpayable"},{"type":"function","name":"setSessionKeyManager","inputs":[{"name":"newManager","type":"address","internalType":"address"}],"outputs":[],"stateMutability":"nonpayable"},{"type":"function","name":"transferOwnership","inputs":[{"name":"newOwner","type":"address","internalType":"address"}],"outputs":[],"stateMutability":"nonpayable"},{"type":"function","name":"validateUserOp","inputs":[{"name":"userOp","type":"tuple","internalType":"struct UserOperation","components":[{"name":"sender","type":"address","internalType":"address"},{"name":"nonce","type":"uint256","internalType":"uint256"},{"name":"initCode","type":"bytes","internalType":"bytes"},{"name":"callData","type":"bytes","internalType":"bytes"},{"name":"callGasLimit","type":"uint256","internalType":"uint256"},{"name":"verificationGasLimit","type":"uint256","internalType":"uint256"},{"name":"preVerificationGas","type":"uint256","internalType":"uint256"},{"name":"maxFeePerGas","type":"uint256","internalType":"uint256"},{"name":"maxPriorityFeePerGas","type":"uint256","internalType":"uint256"},{"name":"paymasterAndData","type":"bytes","internalType":"bytes"},{"name":"signature","type":"bytes","internalType":"bytes"}]},{"name":"userOpHash","type":"bytes32","internalType":"bytes32"},{"name":"missingAccountFunds","type":"uint256","internalType":"uint256"}],"outputs":[{"name":"validationData","type":"uint256","internalType":"uint256"}],"stateMutability":"nonpayable"},{"type":"event","name":"BatchExecuted","inputs":[{"name":"count","type":"uint256","indexed":false,"internalType":"uint256"}],"anonymous":false},{"type":"event","name":"Executed","inputs":[{"name":"target","type":"address","indexed":true,"internalType":"address"},{"name":"value","type":"uint256","indexed":false,"internalType":"uint256"},{"name":"selector","type":"bytes4","indexed":false,"internalType":"bytes4"},{"name":"success","type":"bool","indexed":false,"internalType":"bool"}],"anonymous":false},{"type":"event","name":"OwnerChanged","inputs":[{"name":"oldOwner","type":"address","indexed":true,"internalType":"address"},{"name":"newOwner","type":"address","indexed":true,"internalType":"address"}],"anonymous":false},{"type":"event","name":"PolicyManagerChanged","inputs":[{"name":"oldManager","type":"address","indexed":true,"internalType":"address"},{"name":"newManager","type":"address","indexed":true,"internalType":"address"}],"anonymous":false},{"type":"event","name":"SessionKeyManagerChanged","inputs":[{"name":"oldManager","type":"address","indexed":true,"internalType":"address"},{"name":"newManager","type":"address","indexed":true,"internalType":"address"}],"anonymous":false},{"type":"error","name":"ECDSAInvalidSignature","inputs":[]},{"type":"error","name":"ECDSAInvalidSignatureLength","inputs":[{"name":"length","type":"uint256","internalType":"uint256"}]},{"type":"error","name":"ECDSAInvalidSignatureS","inputs":[{"name":"s","type":"bytes32","internalType":"bytes32"}]},{"type":"error","name":"InvalidBatch","inputs":[]},{"type":"error","name":"InvalidSignature","inputs":[]},{"type":"error","name":"NotEntryPoint","inputs":[]},{"type":"error","name":"PolicyRejected","inputs":[]}],"bytecode":{"object":"0x60a03461010a57601f61158e38819003918201601f19168301916001600160401b0383118484101761010e5780849260809460405283398101031261010a5780516001600160a01b038116919082900361010a5760208101516001600160a01b038116810361010a5760408201516001600160a01b038116929083900361010a57606001516001600160a01b038116939084900361010a5760018060a01b03195f5416175f5560805260018060a01b0319600154161760015560018060a01b0319600254161760025560405161146b908161012382396080518181816101e5015281816104a20152818161058601528181610611015281816106c9015281816109590152610ce80152f35b5f80fd5b634e487b7160e01b5f52604160045260245ffdfe6080604052600436101561001a575b3615610018575f80fd5b005b5f3560e01c80630b826190146100b95780633a871cdd146100b457806347e1da2a146100af578063837fa3fd146100aa5780638da5cb5b146100a5578063ab3dbf3b146100a0578063adde41e11461009b578063b0d691fe14610096578063b61d27f6146100915763f2fde38b0361000e576106aa565b610640565b6105fc565b610567565b61053f565b610518565b610483565b610173565b6100f4565b6100cc565b5f9103126100c857565b5f80fd5b346100c8575f3660031901126100c8576002546040516001600160a01b039091168152602090f35b346100c85760603660031901126100c8576004356001600160401b0381116100c85761016060031982360301126100c85761013b6020916044359060243590600401610957565b604051908152f35b9181601f840112156100c8578235916001600160401b0383116100c8576020808501948460051b0101116100c857565b346100c85760603660031901126100c8576004356001600160401b0381116100c8576101a3903690600401610143565b6024356001600160401b0381116100c8576101c2903690600401610143565b92906044356001600160401b0381116100c8576101e3903690600401610143565b7f00000000000000000000000000000000000000000000000000000000000000006001600160a01b0316330361046357858514801590610459575b61044a575f5b858110610371575061023585610c2a565b955f5b8681106102f85760015488908890610260906001600160a01b03165b6001600160a01b031690565b803b156100c8576040516317f32d3560e21b8152925f91849182908490829061028d9030600484016108d7565b03925af19081156102f3577fe9cc9bbe7de1cbb097a6357ca3182909488efe8d793e25665befc064a02d10a7926102d4926102d9575b506040519081529081906020820190565b0390a1005b806102e75f6102ed936107a3565b806100be565b836102c3565b6108cc565b8061030e6103096001938a8a610b70565b610b85565b61035061031c83868a610b70565b3561032884888a610b8f565b90916103446103356108fc565b6001600160a01b039096168652565b60208501523691610c8c565b604082015261035f828b610ccf565b5261036a818a610ccf565b5001610238565b5f80610381610309848a8a610b70565b61038c848b89610b70565b35610398858789610b8f565b91906103a960405180948193610baa565b03925af16103b5610928565b90156104425750806103cd6103096001938989610b70565b7fbdcb975ce1d37ba0930e89fa5a41786e6254bc4ec972dfc5091b2c68774ee27b6103f9838b89610b70565b359161040f61040985888a610b8f565b90610ec1565b604080519485526001600160e01b031991909116602085015260019084015260a085901b8590031691606090a201610224565b602081519101fd5b6333b094a160e01b5f5260045ffd5b508085141561021e565b636b31ba1560e11b5f5260045ffd5b6001600160a01b038116036100c857565b346100c85760203660031901126100c8576004356104a081610472565b7f00000000000000000000000000000000000000000000000000000000000000006001600160a01b0316330361046357600280546001600160a01b039283166001600160a01b0319821681179092559091167f29b3662181b4cc532fd2904aae049d7b3c62ad406d63fa42cf2127049917843a5f80a3005b346100c8575f3660031901126100c8575f546040516001600160a01b039091168152602090f35b346100c8575f3660031901126100c8576001546040516001600160a01b039091168152602090f35b346100c85760203660031901126100c85760043561058481610472565b7f00000000000000000000000000000000000000000000000000000000000000006001600160a01b0316330361046357600180546001600160a01b039283166001600160a01b0319821681179092559091167fec1b1e4c7e3e7cbb6ff573396cc28a32b55669e92cc94d3290853e0e2d6d0a715f80a3005b346100c8575f3660031901126100c8576040517f00000000000000000000000000000000000000000000000000000000000000006001600160a01b03168152602090f35b346100c85760603660031901126100c85760043561065d81610472565b602435604435916001600160401b0383116100c857366023840112156100c8578260040135916001600160401b0383116100c85736602484860101116100c8576024610018940191610ce3565b346100c85760203660031901126100c8576004356106c781610472565b7f00000000000000000000000000000000000000000000000000000000000000006001600160a01b03163303610463575f80546001600160a01b039283166001600160a01b03198216811783559216907fb532073b38c83145e3e5135377a08bf9aab55bc0fd7c1179cd4fb995d2a5159c9080a3005b903590601e19813603018212156100c857018035906001600160401b0382116100c8576020019181360383136100c857565b634e487b7160e01b5f52604160045260245ffd5b606081019081106001600160401b0382111761079e57604052565b61076f565b90601f801991011681019081106001600160401b0382111761079e57604052565b91908260409103126100c857815180151581036100c85760209092015190565b9080602083519182815201916020808360051b8301019401925f915b83831061080f57505050505090565b90919293946020806080600193601f198682030187528260408b51878060a01b03815116845282810151838501520151606060408401528051918291826060860152018484015e5f828201840152601f01601f191601019701959491909101920190610800565b9695949193806108c79460809660c09460018060a01b03168b5260208b015260a060408b01528160a08b0152838a01375f888201830152601f01601f191687018781038201606089015201906107e4565b930152565b6040513d5f823e3d90fd5b6001600160a01b0390911681526040602082018190526108f9929101906107e4565b90565b6040519061090b6060836107a3565b565b6001600160401b03811161079e57601f01601f191660200190565b3d15610952573d906109398261090d565b9161094760405193846107a3565b82523d5f602084013e565b606090565b7f00000000000000000000000000000000000000000000000000000000000000006001600160a01b0316919033839003610463576101408101916109a561099e848461073d565b9083610e44565b9060608301936109d36109cd6109c66109c1610409898961073d565b610edf565b968661073d565b90611134565b9591969094811580978198610b53575b50610a735715610ab1575b5050505050610a1e575b5081610a05575b50505f90565b5f80809381935af150610a16610928565b505f806109ff565b600154610a5591604091610a3a906001600160a01b0316610254565b825180809581946335afab3560e11b835230600484016108d7565b03915afa9081156102f3575f91610a81575b5015610a73575f6109f8565b62a3a4b960e01b5f5260045ffd5b610aa3915060403d604011610aaa575b610a9b81836107a3565b8101906107c4565b505f610a67565b503d610a91565b610b46578593604093610adb610afb94610ad561025460025460018060a01b031690565b9461073d565b949092865197889687958695635628987160e01b87523060048801610876565b03915afa9081156102f3575f91610b26575b5015610b1d575f808080806109ee565b50505050600190565b610b3f915060403d604011610aaa57610a9b81836107a3565b505f610b0d565b5050505050505050600190565b9050155f6109e3565b634e487b7160e01b5f52603260045260245ffd5b9190811015610b805760051b0190565b610b5c565b356108f981610472565b90821015610b8057610ba69160051b81019061073d565b9091565b908092918237015f815290565b6001600160401b03811161079e5760051b60200190565b604080519190610bde90836107a3565b6001825281601f19610bf06001610bb7565b01905f5b828110610c0057505050565b602090604051610c0f81610783565b5f81525f838201526060604082015282828501015201610bf4565b90610c3482610bb7565b610c4160405191826107a3565b8281528092610c52601f1991610bb7565b01905f5b828110610c6257505050565b602090604051610c7181610783565b5f81525f838201526060604082015282828501015201610c56565b929192610c988261090d565b91610ca660405193846107a3565b8294818452818301116100c8578281602093845f960137010152565b805115610b805760200190565b8051821015610b805760209160051b010190565b9092917f00000000000000000000000000000000000000000000000000000000000000006001600160a01b03163303610463575f8060405180610d27818887610baa565b039087865af1610d35610928565b90156104425750610d44610bce565b92610d4d6108fc565b6001600160a01b0384168152856020820152610d6a368385610c8c565b6040820152610d7885610cc2565b52610d8284610cc2565b50600154610d98906001600160a01b0316610254565b803b156100c8576040516317f32d3560e21b8152945f918691829084908290610dc59030600484016108d7565b03925af19182156102f3577fbdcb975ce1d37ba0930e89fa5a41786e6254bc4ec972dfc5091b2c68774ee27b94610e0193610e30575b50610ec1565b604080519485526001600160e01b03199190911660208501526001908401526001600160a01b031691606090a2565b806102e75f610e3e936107a3565b5f610dfb565b91610e82610e8892610e91947f19457468657265756d205369676e6564204d6573736167653a0a3332000000005f52601c52603c5f20923691610c8c565b906112df565b90929192611337565b5f546001600160a01b0391821691161490565b90929192836004116100c85783116100c857600401916003190190565b90600481106109ff576004116100c857356001600160e01b03191690565b63ffffffff60e01b1663adde41e160e01b8114908115610f12575b8115610f04575090565b63f2fde38b60e01b14919050565b63837fa3fd60e01b81149150610efa565b9080601f830112156100c8578160206108f993359101610c8c565b916060838303126100c8578235610f5481610472565b9260208101359260408201356001600160401b0381116100c8576108f99201610f23565b9080601f830112156100c8578135610f8f81610bb7565b92610f9d60405194856107a3565b81845260208085019260051b8201019283116100c857602001905b828210610fc55750505090565b8135815260209182019101610fb8565b9080601f830112156100c8578135610fec81610bb7565b92610ffa60405194856107a3565b81845260208085019260051b820101918383116100c85760208201905b83821061102657505050505090565b81356001600160401b0381116100c85760209161104887848094880101610f23565b815201910190611017565b916060838303126100c85782356001600160401b0381116100c857830182601f820112156100c85780359061108782610bb7565b9161109560405193846107a3565b80835260208084019160051b830101918583116100c857602001905b8282106110f9575050509260208101356001600160401b0381116100c857836110db918301610f78565b9260408201356001600160401b0381116100c8576108f99201610fd5565b60208091833561110881610472565b8152019101906110b1565b9190820180921161112057565b634e487b7160e01b5f52601160045260245ffd5b5f9291606091600482106112d4576001600160e01b03196111558383610ec1565b16635b0e93fb60e11b811461126d576323f0ed1560e11b1461117c57509092505f91829150565b816111929261118a92610ea4565b810190611053565b909282519084518214801590611262575b61125557506111b190610c2a565b915f955b8151871015611248576112406001916111de6111d18a86610ccf565b516001600160a01b031690565b6111e88a89610ccf565b516111f38b88610ccf565b519061120f6112006108fc565b6001600160a01b039094168452565b602083015260408201526112238a88610ccf565b5261122e8987610ccf565b506112398988610ccf565b5190611113565b9601956111b5565b9550505090509190600190565b95505f9485945092505050565b5082518214156111a3565b5061128893945061128092508190610ea4565b810190610f3e565b909291611293610bce565b916112ae61129f6108fc565b6001600160a01b039093168352565b84602083015260408201526112c282610cc2565b526112cc81610cc2565b509190600190565b509092505f91829150565b815191906041830361130f576113089250602082015190606060408401519301515f1a906113b3565b9192909190565b50505f9160029190565b6004111561132357565b634e487b7160e01b5f52602160045260245ffd5b61134081611319565b80611349575050565b61135281611319565b600181036113695763f645eedf60e01b5f5260045ffd5b61137281611319565b6002810361138d575063fce698f760e01b5f5260045260245ffd5b80611399600392611319565b146113a15750565b6335e2f38360e21b5f5260045260245ffd5b91907f7fffffffffffffffffffffffffffffff5d576e7357a4501ddfe92f46681b20a0841161142a579160209360809260ff5f9560405194855216868401526040830152606082015282805260015afa156102f3575f516001600160a01b0381161561142057905f905f90565b505f906001905f90565b5050505f916003919056fea26469706673582212208a9b16856ba96b7655b294787ec6c3d4e77d482b744c1f3b6baa482318d155f964736f6c63430008210033","linkReferences":{}},"methodIdentifiers":{"entryPoint()":"b0d691fe","execute(address,uint256,bytes)":"b61d27f6","executeBatch(address[],uint256[],bytes[])":"47e1da2a","owner()":"8da5cb5b","policyManager()":"ab3dbf3b","sessionKeyManager()":"0b826190","setPolicyManager(address)":"adde41e1","setSessionKeyManager(address)":"837fa3fd","transferOwnership(address)":"f2fde38b","validateUserOp((address,uint256,bytes,bytes,uint256,uint256,uint256,uint256,uint256,bytes,bytes),bytes32,uint256)":"3a871cdd"},"id":5}