{"abi":[{"type":"function","name":"UNFREEZE_DELAY","inputs":[],"outputs":[{"name":"","type":"uint256","internalType":"uint256"}],"stateMutability":"view"},{"type":"function","name":"allowedSelector","inputs":[{"name":"","type":"address","internalType":"address"},{"name":"","type":"address","internalType":"address"},{"name":"","type":"bytes4","internalType":"bytes4"}],"outputs":[{"name":"","type":"bool","internalType":"bool"}],"stateMutability":"view"},{"type":"function","name":"allowedTarget","inputs":[{"name":"","type":"address","internalType":"address"},{"name":"","type":"address","internalType":"address"}],"outputs":[{"name":"","type":"bool","internalType":"bool"}],"stateMutability":"view"},{"type":"function","name":"capPerDay","inputs":[{"name":"","type":"address","internalType":"address"},{"name":"","type":"address","internalType":"address"}],"outputs":[{"name":"","type":"uint256","internalType":"uint256"}],"stateMutability":"view"},{"type":"function","name":"freeze","inputs":[],"outputs":[],"stateMutability":"nonpayable"},{"type":"function","name":"frozen","inputs":[{"name":"","type":"address","internalType":"address"}],"outputs":[{"name":"","type":"bool","internalType":"bool"}],"stateMutability":"view"},{"type":"function","name":"postExec","inputs":[{"name":"account","type":"address","internalType":"address"},{"name":"calls","type":"tuple[]","internalType":"struct Call[]","components":[{"name":"target","type":"address","internalType":"address"},{"name":"value","type":"uint256","internalType":"uint256"},{"name":"data","type":"bytes","internalType":"bytes"}]}],"outputs":[],"stateMutability":"nonpayable"},{"type":"function","name":"requestUnfreeze","inputs":[],"outputs":[],"stateMutability":"nonpayable"},{"type":"function","name":"selectorAllowlistEnabled","inputs":[{"name":"","type":"address","internalType":"address"}],"outputs":[{"name":"","type":"bool","internalType":"bool"}],"stateMutability":"view"},{"type":"function","name":"setDailyCap","inputs":[{"name":"token","type":"address","internalType":"address"},{"name":"cap","type":"uint256","internalType":"uint256"}],"outputs":[],"stateMutability":"nonpayable"},{"type":"function","name":"setSelectorAllowed","inputs":[{"name":"target","type":"address","internalType":"address"},{"name":"selector","type":"bytes4","internalType":"bytes4"},{"name":"allowed","type":"bool","internalType":"bool"}],"outputs":[],"stateMutability":"nonpayable"},{"type":"function","name":"setSelectorAllowlistEnabled","inputs":[{"name":"value","type":"bool","internalType":"bool"}],"outputs":[],"stateMutability":"nonpayable"},{"type":"function","name":"setTargetAllowed","inputs":[{"name":"target","type":"address","internalType":"address"},{"name":"allowed","type":"bool","internalType":"bool"}],"outputs":[],"stateMutability":"nonpayable"},{"type":"function","name":"setTargetAllowlistEnabled","inputs":[{"name":"value","type":"bool","internalType":"bool"}],"outputs":[],"stateMutability":"nonpayable"},{"type":"function","name":"spentPerDay","inputs":[{"name":"","type":"address","internalType":"address"},{"name":"","type":"address","internalType":"address"},{"name":"","type":"uint256","internalType":"uint256"}],"outputs":[{"name":"","type":"uint256","internalType":"uint256"}],"stateMutability":"view"},{"type":"function","name":"targetAllowlistEnabled","inputs":[{"name":"","type":"address","internalType":"address"}],"outputs":[{"name":"","type":"bool","internalType":"bool"}],"stateMutability":"view"},{"type":"function","name":"unfreeze","inputs":[],"outputs":[],"stateMutability":"nonpayable"},{"type":"function","name":"unlockAt","inputs":[{"name":"","type":"address","internalType":"address"}],"outputs":[{"name":"","type":"uint64","internalType":"uint64"}],"stateMutability":"view"},{"type":"function","name":"validateCall","inputs":[{"name":"account","type":"address","internalType":"address"},{"name":"calls","type":"tuple[]","internalType":"struct Call[]","components":[{"name":"target","type":"address","internalType":"address"},{"name":"value","type":"uint256","internalType":"uint256"},{"name":"data","type":"bytes","internalType":"bytes"}]}],"outputs":[{"name":"ok","type":"bool","internalType":"bool"},{"name":"reason","type":"bytes32","internalType":"bytes32"}],"stateMutability":"view"}],"bytecode":{"object":"0x60808060405234601557610b63908161001a8239f35b5f80fdfe60806040526004361015610011575f80fd5b5f3560e01c80633a3d56fa146105575780633f204e191461051e5780635fccb4d41461050757806362a5af3b146104c45780636a28f000146104ac5780636b5f566a146104855780637a5a7c271461040e578063805051b71461039957806389b7e58614610357578063993f36391461033a578063bef7e43e146102e0578063c696645c146102a7578063d05166501461026b578063da09a33114610229578063de86e696146101ec578063e588bb191461019c578063ed8f4e2d14610145578063ee4021581461012b5763fa05986c146100ea575f80fd5b34610127576020366003190112610127576001600160a01b0361010b6105af565b165f526003602052602060ff60405f2054166040519015158152f35b5f80fd5b34610127575f3660031901126101275761014361087c565b005b346101275760403660031901126101275761015e6105af565b6101666105c5565b9060018060a01b03165f52600460205260405f209060018060a01b03165f52602052602060ff60405f2054166040519015158152f35b34610127576040366003190112610127576101b56105af565b6101bd6105c5565b6001600160a01b039182165f908152600660209081526040808320949093168252928352819020549051908152f35b34610127576020366003190112610127576001600160a01b0361020d6105af565b165f526002602052602060ff60405f2054166040519015158152f35b34610127576040366003190112610127576102426105af565b335f9081526006602090815260408083206001600160a01b039094168352929052206024359055005b34610127576020366003190112610127576001600160a01b0361028c6105af565b165f525f602052602060ff60405f2054166040519015158152f35b34610127576020366003190112610127576101436102c36105db565b335f52600360205260405f209060ff801983541691151516179055565b34610127576060366003190112610127576102f96105af565b6103016105c5565b6001600160a01b039182165f90815260076020908152604080832094909316825292835281812060443582528352819020549051908152f35b34610127575f366003190112610127576020604051620151808152f35b34610127576020366003190112610127576001600160a01b036103786105af565b165f526001602052602067ffffffffffffffff60405f205416604051908152f35b34610127576060366003190112610127576103b26105af565b6103ba6105c5565b6044359163ffffffff60e01b83168093036101275760018060a01b03165f52600560205260405f209060018060a01b03165f5260205260405f20905f52602052602060ff60405f2054166040519015158152f35b34610127576060366003190112610127576104276105af565b60243563ffffffff60e01b8116809103610127576044359081151582036101275761014392335f52600560205260405f209060018060a01b03165f5260205260405f20905f5260205260405f209060ff801983541691151516179055565b3461012757604061049e610498366105ea565b91610789565b825191151582526020820152f35b34610127575f3660031901126101275761014361070b565b34610127575f36600319011261012757335f90815260208181526040808320805460ff191660019081179091559091529020805467ffffffffffffffff19169055005b3461012757610143610518366105ea565b91610672565b346101275760203660031901126101275761014361053a6105db565b335f52600260205260405f209060ff801983541691151516179055565b34610127576040366003190112610127576105706105af565b60243580151581036101275761014391335f52600460205260405f209060018060a01b03165f5260205260405f209060ff801983541691151516179055565b600435906001600160a01b038216820361012757565b602435906001600160a01b038216820361012757565b60043590811515820361012757565b6040600319820112610127576004356001600160a01b0381168103610127579160243567ffffffffffffffff811161012757826023820112156101275780600401359267ffffffffffffffff84116101275760248460051b83010111610127576024019190565b9190820180921161065e57565b634e487b7160e01b5f52601160045260245ffd5b6001600160a01b031691338390036107065761068d916108fc565b801561070257815f52600660205260405f205f805260205260405f205415610702576106df62015180420491835f52600760205260405f205f805260205260405f20835f5260205260405f2054610651565b915f52600760205260405f205f805260205260405f20905f5260205260405f2055565b5050565b505050565b335f525f60205260ff60405f2054161561078757335f52600160205267ffffffffffffffff60405f2054161561078757335f52600160205267ffffffffffffffff60405f205416421061078757335f90815260208181526040808320805460ff1916905560019091529020805467ffffffffffffffff19169055565b565b919060018060a01b0383165f525f60205260ff60405f205416610853576107b182828561094a565b1561082a576107c18282856109cc565b15610801576107cf92610a97565b156107db576001905f90565b5f907fd4b22f9b4011df9b995f93a3440185667410f4fabe5e10876fc004c3213c29fe90565b5050505f907f33e69e96c64c575832147e4f4d91a11e83bf3c1055767ece930230e05576a29790565b5050505f907f5314877d58bbc663e5628a281c0a546b854f0ded27a1335199f011840c2b55f290565b5050505f907f7c78561e9c3b6dc2802172fb2041fc3504da930f63dfaf87b57359e924c17eb990565b335f525f60205260ff60405f205416156107875762015180420180421161065e57335f52600160205267ffffffffffffffff60405f20911667ffffffffffffffff19825416179055565b91908110156108e85760051b81013590605e1981360301821215610127570190565b634e487b7160e01b5f52603260045260245ffd5b91905f925f915b80831061090f57505050565b90919361092d60019160206109258886886108c6565b013590610651565b94019190610903565b356001600160a01b03811681036101275790565b6001600160a01b03165f8181526002602052604090205460ff16156109c4575f5b83811061097b5750505050600190565b815f52600460205260405f2061099a6109958387876108c6565b610936565b60018060a01b03165f5260205260ff60405f205416156109bc5760010161096b565b505050505f90565b505050600190565b6001600160a01b03165f8181526003602052604090205490919060ff16156109c4575f5b838110610a005750505050600190565b610a0b8185846108c6565b604081013590601e1981360301821215610127570180359067ffffffffffffffff82116101275760200190803603821361012757610a4891610b09565b835f52600560205260405f20610a626109958488876108c6565b60018060a01b03165f5260205260405f209063ffffffff60e01b165f5260205260ff60405f205416156109bc576001016109f0565b60018060a01b031690815f52600660205260405f205f805260205260405f2054928315610b0057610ac7916108fc565b80156109c457610afb915f52600760205260405f205f805260205260405f206201518042045f5260205260405f2054610651565b111590565b50505050600190565b9060048110610b275760041161012757356001600160e01b03191690565b50505f9056fea26469706673582212204a95efb052f691a6e611b0d3f567e939f4321523a990e41dac0ed5cd051bd07464736f6c63430008210033","linkReferences":{}},"methodIdentifiers":{"UNFREEZE_DELAY()":"993f3639","allowedSelector(address,address,bytes4)":"805051b7","allowedTarget(address,address)":"ed8f4e2d","capPerDay(address,address)":"e588bb19","freeze()":"62a5af3b","frozen(address)":"d0516650","postExec(address,(address,uint256,bytes)[])":"5fccb4d4","requestUnfreeze()":"ee402158","selectorAllowlistEnabled(address)":"fa05986c","setDailyCap(address,uint256)":"da09a331","setSelectorAllowed(address,bytes4,bool)":"7a5a7c27","setSelectorAllowlistEnabled(bool)":"c696645c","setTargetAllowed(address,bool)":"3a3d56fa","setTargetAllowlistEnabled(bool)":"3f204e19","spentPerDay(address,address,uint256)":"bef7e43e","targetAllowlistEnabled(address)":"de86e696","unfreeze()":"6a28f000","unlockAt(address)":"89b7e586","validateCall(address,(address,uint256,bytes)[])":"6b5f566a"},"id":1}